{
  "_format": "hh-sol-artifact-1",
  "contractName": "MyEpicNFT",
  "sourceName": "contracts/MyEpicNFT.sol",
  "abi": [
    {
      "inputs": [],
      "stateMutability": "nonpayable",
      "type": "constructor"
    },
    {
      "anonymous": false,
      "inputs": [
        {
          "indexed": true,
          "internalType": "address",
          "name": "owner",
          "type": "address"
        },
        {
          "indexed": true,
          "internalType": "address",
          "name": "approved",
          "type": "address"
        },
        {
          "indexed": true,
          "internalType": "uint256",
          "name": "tokenId",
          "type": "uint256"
        }
      ],
      "name": "Approval",
      "type": "event"
    },
    {
      "anonymous": false,
      "inputs": [
        {
          "indexed": true,
          "internalType": "address",
          "name": "owner",
          "type": "address"
        },
        {
          "indexed": true,
          "internalType": "address",
          "name": "operator",
          "type": "address"
        },
        {
          "indexed": false,
          "internalType": "bool",
          "name": "approved",
          "type": "bool"
        }
      ],
      "name": "ApprovalForAll",
      "type": "event"
    },
    {
      "anonymous": false,
      "inputs": [
        {
          "indexed": false,
          "internalType": "address",
          "name": "sender",
          "type": "address"
        },
        {
          "indexed": false,
          "internalType": "uint256",
          "name": "tokenId",
          "type": "uint256"
        }
      ],
      "name": "NewEpicNFTMinted",
      "type": "event"
    },
    {
      "anonymous": false,
      "inputs": [
        {
          "indexed": true,
          "internalType": "address",
          "name": "from",
          "type": "address"
        },
        {
          "indexed": true,
          "internalType": "address",
          "name": "to",
          "type": "address"
        },
        {
          "indexed": true,
          "internalType": "uint256",
          "name": "tokenId",
          "type": "uint256"
        }
      ],
      "name": "Transfer",
      "type": "event"
    },
    {
      "inputs": [],
      "name": "MAX_MINT",
      "outputs": [
        {
          "internalType": "uint256",
          "name": "",
          "type": "uint256"
        }
      ],
      "stateMutability": "view",
      "type": "function"
    },
    {
      "inputs": [
        {
          "internalType": "address",
          "name": "to",
          "type": "address"
        },
        {
          "internalType": "uint256",
          "name": "tokenId",
          "type": "uint256"
        }
      ],
      "name": "approve",
      "outputs": [],
      "stateMutability": "nonpayable",
      "type": "function"
    },
    {
      "inputs": [
        {
          "internalType": "address",
          "name": "owner",
          "type": "address"
        }
      ],
      "name": "balanceOf",
      "outputs": [
        {
          "internalType": "uint256",
          "name": "",
          "type": "uint256"
        }
      ],
      "stateMutability": "view",
      "type": "function"
    },
    {
      "inputs": [
        {
          "internalType": "uint256",
          "name": "tokenId",
          "type": "uint256"
        }
      ],
      "name": "getApproved",
      "outputs": [
        {
          "internalType": "address",
          "name": "",
          "type": "address"
        }
      ],
      "stateMutability": "view",
      "type": "function"
    },
    {
      "inputs": [],
      "name": "getTotalMinted",
      "outputs": [
        {
          "internalType": "uint256",
          "name": "",
          "type": "uint256"
        }
      ],
      "stateMutability": "view",
      "type": "function"
    },
    {
      "inputs": [
        {
          "internalType": "address",
          "name": "owner",
          "type": "address"
        },
        {
          "internalType": "address",
          "name": "operator",
          "type": "address"
        }
      ],
      "name": "isApprovedForAll",
      "outputs": [
        {
          "internalType": "bool",
          "name": "",
          "type": "bool"
        }
      ],
      "stateMutability": "view",
      "type": "function"
    },
    {
      "inputs": [],
      "name": "makeAnEpicNFT",
      "outputs": [],
      "stateMutability": "nonpayable",
      "type": "function"
    },
    {
      "inputs": [],
      "name": "name",
      "outputs": [
        {
          "internalType": "string",
          "name": "",
          "type": "string"
        }
      ],
      "stateMutability": "view",
      "type": "function"
    },
    {
      "inputs": [
        {
          "internalType": "uint256",
          "name": "tokenId",
          "type": "uint256"
        }
      ],
      "name": "ownerOf",
      "outputs": [
        {
          "internalType": "address",
          "name": "",
          "type": "address"
        }
      ],
      "stateMutability": "view",
      "type": "function"
    },
    {
      "inputs": [
        {
          "internalType": "uint256",
          "name": "tokenId",
          "type": "uint256"
        }
      ],
      "name": "pickRandomFirstWord",
      "outputs": [
        {
          "internalType": "string",
          "name": "",
          "type": "string"
        }
      ],
      "stateMutability": "view",
      "type": "function"
    },
    {
      "inputs": [
        {
          "internalType": "uint256",
          "name": "tokenId",
          "type": "uint256"
        }
      ],
      "name": "pickRandomSecondWord",
      "outputs": [
        {
          "internalType": "string",
          "name": "",
          "type": "string"
        }
      ],
      "stateMutability": "view",
      "type": "function"
    },
    {
      "inputs": [
        {
          "internalType": "uint256",
          "name": "tokenId",
          "type": "uint256"
        }
      ],
      "name": "pickRandomThirdWord",
      "outputs": [
        {
          "internalType": "string",
          "name": "",
          "type": "string"
        }
      ],
      "stateMutability": "view",
      "type": "function"
    },
    {
      "inputs": [
        {
          "internalType": "address",
          "name": "from",
          "type": "address"
        },
        {
          "internalType": "address",
          "name": "to",
          "type": "address"
        },
        {
          "internalType": "uint256",
          "name": "tokenId",
          "type": "uint256"
        }
      ],
      "name": "safeTransferFrom",
      "outputs": [],
      "stateMutability": "nonpayable",
      "type": "function"
    },
    {
      "inputs": [
        {
          "internalType": "address",
          "name": "from",
          "type": "address"
        },
        {
          "internalType": "address",
          "name": "to",
          "type": "address"
        },
        {
          "internalType": "uint256",
          "name": "tokenId",
          "type": "uint256"
        },
        {
          "internalType": "bytes",
          "name": "_data",
          "type": "bytes"
        }
      ],
      "name": "safeTransferFrom",
      "outputs": [],
      "stateMutability": "nonpayable",
      "type": "function"
    },
    {
      "inputs": [
        {
          "internalType": "address",
          "name": "operator",
          "type": "address"
        },
        {
          "internalType": "bool",
          "name": "approved",
          "type": "bool"
        }
      ],
      "name": "setApprovalForAll",
      "outputs": [],
      "stateMutability": "nonpayable",
      "type": "function"
    },
    {
      "inputs": [
        {
          "internalType": "bytes4",
          "name": "interfaceId",
          "type": "bytes4"
        }
      ],
      "name": "supportsInterface",
      "outputs": [
        {
          "internalType": "bool",
          "name": "",
          "type": "bool"
        }
      ],
      "stateMutability": "view",
      "type": "function"
    },
    {
      "inputs": [],
      "name": "symbol",
      "outputs": [
        {
          "internalType": "string",
          "name": "",
          "type": "string"
        }
      ],
      "stateMutability": "view",
      "type": "function"
    },
    {
      "inputs": [
        {
          "internalType": "uint256",
          "name": "tokenId",
          "type": "uint256"
        }
      ],
      "name": "tokenURI",
      "outputs": [
        {
          "internalType": "string",
          "name": "",
          "type": "string"
        }
      ],
      "stateMutability": "view",
      "type": "function"
    },
    {
      "inputs": [
        {
          "internalType": "address",
          "name": "from",
          "type": "address"
        },
        {
          "internalType": "address",
          "name": "to",
          "type": "address"
        },
        {
          "internalType": "uint256",
          "name": "tokenId",
          "type": "uint256"
        }
      ],
      "name": "transferFrom",
      "outputs": [],
      "stateMutability": "nonpayable",
      "type": "function"
    }
  ],
  "bytecode": "0x6080604052603260085560405180610160016040528061012f8152602001620049ff61012f9139600990805190602001906200003d92919062000b5d565b50604051806101a001604052806040518060400160405280600581526020017f416c69656e00000000000000000000000000000000000000000000000000000081525081526020016040518060400160405280600781526020017f4372696d736f6e0000000000000000000000000000000000000000000000000081525081526020016040518060400160405280600c81526020017f53756274657272616e65616e000000000000000000000000000000000000000081525081526020016040518060400160405280600781526020017f476e6f737469630000000000000000000000000000000000000000000000000081525081526020016040518060400160405280600981526020017f43656c65737469616c000000000000000000000000000000000000000000000081525081526020016040518060400160405280600b81526020017f556e646973636c6f73656400000000000000000000000000000000000000000081525081526020016040518060400160405280600b81526020017f436c616e64657374696e6500000000000000000000000000000000000000000081525081526020016040518060400160405280600881526020017f56616e697368656400000000000000000000000000000000000000000000000081525081526020016040518060400160405280600581526020017f426c61636b00000000000000000000000000000000000000000000000000000081525081526020016040518060400160405280600b81526020017f486f6d656f70617468696300000000000000000000000000000000000000000081525081526020016040518060400160405280600d81526020017f537572726570746974696f75730000000000000000000000000000000000000081525081526020016040518060400160405280600881526020017f506172616c6c656c00000000000000000000000000000000000000000000000081525081526020016040518060400160405280600581526020017f4c75636964000000000000000000000000000000000000000000000000000000815250815250600a90600d6200035992919062000bee565b50604051806101a001604052806040518060400160405280600581526020017f447265616d00000000000000000000000000000000000000000000000000000081525081526020016040518060400160405280600881526020017f4d757368726f6f6d00000000000000000000000000000000000000000000000081525081526020016040518060400160405280600a81526020017f5073696c6f637962696e0000000000000000000000000000000000000000000081525081526020016040518060400160405280600a81526020017f4368656d747261696c730000000000000000000000000000000000000000000081525081526020016040518060400160405280600781526020017f437279707469640000000000000000000000000000000000000000000000000081525081526020016040518060400160405280600a81526020017f476f7665726e6d656e740000000000000000000000000000000000000000000081525081526020016040518060400160405280600881526020017f456c657661746f7200000000000000000000000000000000000000000000000081525081526020016040518060400160405280600a81526020017f48656c69636f707465720000000000000000000000000000000000000000000081525081526020016040518060400160405280600781526020017f52657074696c650000000000000000000000000000000000000000000000000081525081526020016040518060400160405280600781526020017f4d6f74686d616e0000000000000000000000000000000000000000000000000081525081526020016040518060400160405280600481526020017f466c61670000000000000000000000000000000000000000000000000000000081525081526020016040518060400160405280600681526020017f50656f706c65000000000000000000000000000000000000000000000000000081525081526020016040518060400160405280600881526020017f466c756f72696465000000000000000000000000000000000000000000000000815250815250600b90600d6200067592919062000bee565b50604051806101a001604052806040518060400160405280600a81526020017f436f6e737069726163790000000000000000000000000000000000000000000081525081526020016040518060400160405280600a81526020017f4578706572696d656e740000000000000000000000000000000000000000000081525081526020016040518060400160405280600a81526020017f5265706c696361746f720000000000000000000000000000000000000000000081525081526020016040518060400160405280600681526020017f566f72746578000000000000000000000000000000000000000000000000000081525081526020016040518060400160405280600981526020017f417263686574797065000000000000000000000000000000000000000000000081525081526020016040518060400160405280600681526020017f436970686572000000000000000000000000000000000000000000000000000081525081526020016040518060400160405280600781526020017f486162697461740000000000000000000000000000000000000000000000000081525081526020016040518060400160405280600a81526020017f45787472616374696f6e0000000000000000000000000000000000000000000081525081526020016040518060400160405280600a81526020017f4162736f727074696f6e0000000000000000000000000000000000000000000081525081526020016040518060400160405280600481526020017f436f64650000000000000000000000000000000000000000000000000000000081525081526020016040518060400160405280600581526020017f4d6f74696600000000000000000000000000000000000000000000000000000081525081526020016040518060400160405280600a81526020017f537562746572667567650000000000000000000000000000000000000000000081525081526020016040518060400160405280600981526020017f4f7065726174696f6e0000000000000000000000000000000000000000000000815250815250600c90600d6200099192919062000bee565b503480156200099f57600080fd5b506040518060400160405280600981526020017f5365637265744e465400000000000000000000000000000000000000000000008152506040518060400160405280600481526020017f5343525400000000000000000000000000000000000000000000000000000000815250816000908051906020019062000a2492919062000b5d565b50806001908051906020019062000a3d92919062000b5d565b50505062000a8b6040518060400160405280601e81526020017f54686973206973206d79204e465420636f6e74726163742e20576f616821000081525062000a9160201b620012531760201c565b62000e0f565b62000b318160405160240162000aa8919062000d23565b6040516020818303038152906040527f41304fac000000000000000000000000000000000000000000000000000000007bffffffffffffffffffffffffffffffffffffffffffffffffffffffff19166020820180517bffffffffffffffffffffffffffffffffffffffffffffffffffffffff838183161783525050505062000b3460201b60201c565b50565b60008151905060006a636f6e736f6c652e6c6f679050602083016000808483855afa5050505050565b82805462000b6b9062000d99565b90600052602060002090601f01602090048101928262000b8f576000855562000bdb565b82601f1062000baa57805160ff191683800117855562000bdb565b8280016001018555821562000bdb579182015b8281111562000bda57825182559160200191906001019062000bbd565b5b50905062000bea919062000c55565b5090565b82805482825590600052602060002090810192821562000c42579160200282015b8281111562000c4157825182908051906020019062000c3092919062000b5d565b509160200191906001019062000c0f565b5b50905062000c51919062000c74565b5090565b5b8082111562000c7057600081600090555060010162000c56565b5090565b5b8082111562000c98576000818162000c8e919062000c9c565b5060010162000c75565b5090565b50805462000caa9062000d99565b6000825580601f1062000cbe575062000cdf565b601f01602090049060005260206000209081019062000cde919062000c55565b5b50565b600062000cef8262000d47565b62000cfb818562000d52565b935062000d0d81856020860162000d63565b62000d188162000dfe565b840191505092915050565b6000602082019050818103600083015262000d3f818462000ce2565b905092915050565b600081519050919050565b600082825260208201905092915050565b60005b8381101562000d8357808201518184015260208101905062000d66565b8381111562000d93576000848401525b50505050565b6000600282049050600182168062000db257607f821691505b6020821081141562000dc95762000dc862000dcf565b5b50919050565b7f4e487b7100000000000000000000000000000000000000000000000000000000600052602260045260246000fd5b6000601f19601f8301169050919050565b613be08062000e1f6000396000f3fe608060405234801561001057600080fd5b50600436106101215760003560e01c806370a08231116100ad578063c575757a11610071578063c575757a1461032c578063c87b56dd1461035c578063de9d132f1461038c578063e985e9c514610396578063f0292a03146103c657610121565b806370a082311461027657806395d89b41146102a6578063a22cb465146102c4578063b187301f146102e0578063b88d4fde1461031057610121565b80630ca1c5c9116100f45780630ca1c5c9146101c057806323b872dd146101de5780632de38d68146101fa57806342842e0e1461022a5780636352211e1461024657610121565b806301ffc9a71461012657806306fdde0314610156578063081812fc14610174578063095ea7b3146101a4575b600080fd5b610140600480360381019061013b91906126ef565b6103e4565b60405161014d91906133ff565b60405180910390f35b61015e6104c6565b60405161016b919061341a565b60405180910390f35b61018e60048036038101906101899190612741565b610558565b60405161019b919061336f565b60405180910390f35b6101be60048036038101906101b991906126b3565b6105dd565b005b6101c86106f5565b6040516101d591906136d1565b60405180910390f35b6101f860048036038101906101f391906125ad565b61070b565b005b610214600480360381019061020f9190612741565b61076b565b604051610221919061341a565b60405180910390f35b610244600480360381019061023f91906125ad565b610889565b005b610260600480360381019061025b9190612741565b6108a9565b60405161026d919061336f565b60405180910390f35b610290600480360381019061028b9190612548565b61095b565b60405161029d91906136d1565b60405180910390f35b6102ae610a13565b6040516102bb919061341a565b60405180910390f35b6102de60048036038101906102d99190612677565b610aa5565b005b6102fa60048036038101906102f59190612741565b610abb565b604051610307919061341a565b60405180910390f35b61032a600480360381019061032591906125fc565b610bd9565b005b61034660048036038101906103419190612741565b610c3b565b604051610353919061341a565b60405180910390f35b61037660048036038101906103719190612741565b610d59565b604051610383919061341a565b60405180910390f35b610394610eab565b005b6103b060048036038101906103ab9190612571565b6111b9565b6040516103bd91906133ff565b60405180910390f35b6103ce61124d565b6040516103db91906136d1565b60405180910390f35b60007f80ac58cd000000000000000000000000000000000000000000000000000000007bffffffffffffffffffffffffffffffffffffffffffffffffffffffff1916827bffffffffffffffffffffffffffffffffffffffffffffffffffffffff191614806104af57507f5b5e139f000000000000000000000000000000000000000000000000000000007bffffffffffffffffffffffffffffffffffffffffffffffffffffffff1916827bffffffffffffffffffffffffffffffffffffffffffffffffffffffff1916145b806104bf57506104be826112ec565b5b9050919050565b6060600080546104d590613970565b80601f016020809104026020016040519081016040528092919081815260200182805461050190613970565b801561054e5780601f106105235761010080835404028352916020019161054e565b820191906000526020600020905b81548152906001019060200180831161053157829003601f168201915b5050505050905090565b600061056382611356565b6105a2576040517f08c379a000000000000000000000000000000000000000000000000000000000815260040161059990613631565b60405180910390fd5b6004600083815260200190815260200160002060009054906101000a900473ffffffffffffffffffffffffffffffffffffffff169050919050565b60006105e8826108a9565b90508073ffffffffffffffffffffffffffffffffffffffff168373ffffffffffffffffffffffffffffffffffffffff161415610659576040517f08c379a000000000000000000000000000000000000000000000000000000000815260040161065090613691565b60405180910390fd5b8073ffffffffffffffffffffffffffffffffffffffff166106786113c2565b73ffffffffffffffffffffffffffffffffffffffff1614806106a757506106a6816106a16113c2565b6111b9565b5b6106e6576040517f08c379a00000000000000000000000000000000000000000000000000000000081526004016106dd90613551565b60405180910390fd5b6106f083836113ca565b505050565b6000806107026007611483565b90508091505090565b61071c6107166113c2565b82611491565b61075b576040517f08c379a0000000000000000000000000000000000000000000000000000000008152600401610752906136b1565b60405180910390fd5b61076683838361156f565b505050565b6060600061079f61077b846117cb565b60405160200161078b919061332b565b604051602081830303815290604052611978565b9050600a80549050816107b291906139eb565b9050600a81815481106107ee577f4e487b7100000000000000000000000000000000000000000000000000000000600052603260045260246000fd5b90600052602060002001805461080390613970565b80601f016020809104026020016040519081016040528092919081815260200182805461082f90613970565b801561087c5780601f106108515761010080835404028352916020019161087c565b820191906000526020600020905b81548152906001019060200180831161085f57829003601f168201915b5050505050915050919050565b6108a483838360405180602001604052806000815250610bd9565b505050565b6000806002600084815260200190815260200160002060009054906101000a900473ffffffffffffffffffffffffffffffffffffffff169050600073ffffffffffffffffffffffffffffffffffffffff168173ffffffffffffffffffffffffffffffffffffffff161415610952576040517f08c379a000000000000000000000000000000000000000000000000000000000815260040161094990613591565b60405180910390fd5b80915050919050565b60008073ffffffffffffffffffffffffffffffffffffffff168273ffffffffffffffffffffffffffffffffffffffff1614156109cc576040517f08c379a00000000000000000000000000000000000000000000000000000000081526004016109c390613571565b60405180910390fd5b600360008373ffffffffffffffffffffffffffffffffffffffff1673ffffffffffffffffffffffffffffffffffffffff168152602001908152602001600020549050919050565b606060018054610a2290613970565b80601f0160208091040260200160405190810160405280929190818152602001828054610a4e90613970565b8015610a9b5780601f10610a7057610100808354040283529160200191610a9b565b820191906000526020600020905b815481529060010190602001808311610a7e57829003601f168201915b5050505050905090565b610ab7610ab06113c2565b83836119ab565b5050565b60606000610aef610acb846117cb565b604051602001610adb91906132c4565b604051602081830303815290604052611978565b9050600b8054905081610b0291906139eb565b9050600b8181548110610b3e577f4e487b7100000000000000000000000000000000000000000000000000000000600052603260045260246000fd5b906000526020600020018054610b5390613970565b80601f0160208091040260200160405190810160405280929190818152602001828054610b7f90613970565b8015610bcc5780601f10610ba157610100808354040283529160200191610bcc565b820191906000526020600020905b815481529060010190602001808311610baf57829003601f168201915b5050505050915050919050565b610bea610be46113c2565b83611491565b610c29576040517f08c379a0000000000000000000000000000000000000000000000000000000008152600401610c20906136b1565b60405180910390fd5b610c3584848484611b18565b50505050565b60606000610c6f610c4b846117cb565b604051602001610c5b91906132a2565b604051602081830303815290604052611978565b9050600c8054905081610c8291906139eb565b9050600c8181548110610cbe577f4e487b7100000000000000000000000000000000000000000000000000000000600052603260045260246000fd5b906000526020600020018054610cd390613970565b80601f0160208091040260200160405190810160405280929190818152602001828054610cff90613970565b8015610d4c5780601f10610d2157610100808354040283529160200191610d4c565b820191906000526020600020905b815481529060010190602001808311610d2f57829003601f168201915b5050505050915050919050565b6060610d6482611356565b610da3576040517f08c379a0000000000000000000000000000000000000000000000000000000008152600401610d9a906135f1565b60405180910390fd5b6000600660008481526020019081526020016000208054610dc390613970565b80601f0160208091040260200160405190810160405280929190818152602001828054610def90613970565b8015610e3c5780601f10610e1157610100808354040283529160200191610e3c565b820191906000526020600020905b815481529060010190602001808311610e1f57829003601f168201915b505050505090506000610e4d611b74565b9050600081511415610e63578192505050610ea6565b600082511115610e98578082604051602001610e809291906131fc565b60405160208183030381529060405292505050610ea6565b610ea184611b8b565b925050505b919050565b6000610eb76007611483565b90506032811115610efd576040517f08c379a0000000000000000000000000000000000000000000000000000000008152600401610ef490613611565b60405180910390fd5b6000610f088261076b565b90506000610f1583610abb565b90506000610f2284610c3b565b90506000838383604051602001610f3b93929190613220565b6040516020818303038152906040529050610f8b6040518060400160405280601181526020017f436f6d62696e6564576f72642069733a2000000000000000000000000000000081525082611c32565b6000600982604051602001610fa1929190613251565b6040516020818303038152906040529050610ff06040518060400160405280601581526020017f0a2d2d2d2d2d2d2d2d2d2d2d2d2d2d2d2d2d2d2d2d0000000000000000000000815250611253565b610ff981611253565b6110376040518060400160405280601581526020017f2d2d2d2d2d2d2d2d2d2d2d2d2d2d2d2d2d2d2d2d0a0000000000000000000000815250611253565b600061106b8361104684611cce565b6040516020016110579291906132e6565b604051602081830303815290604052611cce565b9050600081604051602001611080919061334d565b60405160208183030381529060405290506110cf6040518060400160405280601581526020017f0a2d2d2d2d2d2d2d2d2d2d2d2d2d2d2d2d2d2d2d2d0000000000000000000000815250611253565b6110f7816040516020016110e39190613280565b604051602081830303815290604052611253565b6111356040518060400160405280601581526020017f2d2d2d2d2d2d2d2d2d2d2d2d2d2d2d2d2d2d2d2d0a0000000000000000000000815250611253565b61113f3389611e8c565b6111498882611eaa565b61116c604051806060016040528060258152602001613b46602591398933611f1e565b6111766007611fbd565b7febb98688741ffa4c7589bf325de30cf7becb63de567842e1ccdb6cb949fdc82c33896040516111a79291906133d6565b60405180910390a15050505050505050565b6000600560008473ffffffffffffffffffffffffffffffffffffffff1673ffffffffffffffffffffffffffffffffffffffff16815260200190815260200160002060008373ffffffffffffffffffffffffffffffffffffffff1673ffffffffffffffffffffffffffffffffffffffff16815260200190815260200160002060009054906101000a900460ff16905092915050565b60085481565b6112e981604051602401611267919061341a565b6040516020818303038152906040527f41304fac000000000000000000000000000000000000000000000000000000007bffffffffffffffffffffffffffffffffffffffffffffffffffffffff19166020820180517bffffffffffffffffffffffffffffffffffffffffffffffffffffffff8381831617835250505050611fd3565b50565b60007f01ffc9a7000000000000000000000000000000000000000000000000000000007bffffffffffffffffffffffffffffffffffffffffffffffffffffffff1916827bffffffffffffffffffffffffffffffffffffffffffffffffffffffff1916149050919050565b60008073ffffffffffffffffffffffffffffffffffffffff166002600084815260200190815260200160002060009054906101000a900473ffffffffffffffffffffffffffffffffffffffff1673ffffffffffffffffffffffffffffffffffffffff1614159050919050565b600033905090565b816004600083815260200190815260200160002060006101000a81548173ffffffffffffffffffffffffffffffffffffffff021916908373ffffffffffffffffffffffffffffffffffffffff160217905550808273ffffffffffffffffffffffffffffffffffffffff1661143d836108a9565b73ffffffffffffffffffffffffffffffffffffffff167f8c5be1e5ebec7d5bd14f71427d1e84f3dd0314c0f7b2291e5b200ac8c7c3b92560405160405180910390a45050565b600081600001549050919050565b600061149c82611356565b6114db576040517f08c379a00000000000000000000000000000000000000000000000000000000081526004016114d290613531565b60405180910390fd5b60006114e6836108a9565b90508073ffffffffffffffffffffffffffffffffffffffff168473ffffffffffffffffffffffffffffffffffffffff16148061155557508373ffffffffffffffffffffffffffffffffffffffff1661153d84610558565b73ffffffffffffffffffffffffffffffffffffffff16145b80611566575061156581856111b9565b5b91505092915050565b8273ffffffffffffffffffffffffffffffffffffffff1661158f826108a9565b73ffffffffffffffffffffffffffffffffffffffff16146115e5576040517f08c379a00000000000000000000000000000000000000000000000000000000081526004016115dc90613651565b60405180910390fd5b600073ffffffffffffffffffffffffffffffffffffffff168273ffffffffffffffffffffffffffffffffffffffff161415611655576040517f08c379a000000000000000000000000000000000000000000000000000000000815260040161164c906134f1565b60405180910390fd5b611660838383611ffc565b61166b6000826113ca565b6001600360008573ffffffffffffffffffffffffffffffffffffffff1673ffffffffffffffffffffffffffffffffffffffff16815260200190815260200160002060008282546116bb9190613886565b925050819055506001600360008473ffffffffffffffffffffffffffffffffffffffff1673ffffffffffffffffffffffffffffffffffffffff168152602001908152602001600020600082825461171291906137a5565b92505081905550816002600083815260200190815260200160002060006101000a81548173ffffffffffffffffffffffffffffffffffffffff021916908373ffffffffffffffffffffffffffffffffffffffff160217905550808273ffffffffffffffffffffffffffffffffffffffff168473ffffffffffffffffffffffffffffffffffffffff167fddf252ad1be2c89b69c2b068fc378daa952ba7f163c4a11628f55a4df523b3ef60405160405180910390a4505050565b60606000821415611813576040518060400160405280600181526020017f30000000000000000000000000000000000000000000000000000000000000008152509050611973565b600082905060005b6000821461184557808061182e906139a2565b915050600a8261183e91906137fb565b915061181b565b60008167ffffffffffffffff811115611887577f4e487b7100000000000000000000000000000000000000000000000000000000600052604160045260246000fd5b6040519080825280601f01601f1916602001820160405280156118b95781602001600182028036833780820191505090505b5090505b6000851461196c576001826118d29190613886565b9150600a856118e191906139eb565b60306118ed91906137a5565b60f81b818381518110611929577f4e487b7100000000000000000000000000000000000000000000000000000000600052603260045260246000fd5b60200101907effffffffffffffffffffffffffffffffffffffffffffffffffffffffffffff1916908160001a905350600a8561196591906137fb565b94506118bd565b8093505050505b919050565b60008160405160200161198b91906131e5565b6040516020818303038152906040528051906020012060001c9050919050565b8173ffffffffffffffffffffffffffffffffffffffff168373ffffffffffffffffffffffffffffffffffffffff161415611a1a576040517f08c379a0000000000000000000000000000000000000000000000000000000008152600401611a1190613511565b60405180910390fd5b80600560008573ffffffffffffffffffffffffffffffffffffffff1673ffffffffffffffffffffffffffffffffffffffff16815260200190815260200160002060008473ffffffffffffffffffffffffffffffffffffffff1673ffffffffffffffffffffffffffffffffffffffff16815260200190815260200160002060006101000a81548160ff0219169083151502179055508173ffffffffffffffffffffffffffffffffffffffff168373ffffffffffffffffffffffffffffffffffffffff167f17307eab39ab6107e8899845ad3d59bd9653f200f220920489ca2b5937696c3183604051611b0b91906133ff565b60405180910390a3505050565b611b2384848461156f565b611b2f84848484612001565b611b6e576040517f08c379a0000000000000000000000000000000000000000000000000000000008152600401611b65906134b1565b60405180910390fd5b50505050565b606060405180602001604052806000815250905090565b6060611b9682611356565b611bd5576040517f08c379a0000000000000000000000000000000000000000000000000000000008152600401611bcc90613671565b60405180910390fd5b6000611bdf611b74565b90506000815111611bff5760405180602001604052806000815250611c2a565b80611c09846117cb565b604051602001611c1a9291906131fc565b6040516020818303038152906040525b915050919050565b611cca8282604051602401611c4892919061343c565b6040516020818303038152906040527f4b5c4277000000000000000000000000000000000000000000000000000000007bffffffffffffffffffffffffffffffffffffffffffffffffffffffff19166020820180517bffffffffffffffffffffffffffffffffffffffffffffffffffffffff8381831617835250505050611fd3565b5050565b60606000825190506000811415611cf75760405180602001604052806000815250915050611e87565b60006003600283611d0891906137a5565b611d1291906137fb565b6004611d1e919061382c565b90506000602082611d2f91906137a5565b67ffffffffffffffff811115611d6e577f4e487b7100000000000000000000000000000000000000000000000000000000600052604160045260246000fd5b6040519080825280601f01601f191660200182016040528015611da05781602001600182028036833780820191505090505b5090506000604051806060016040528060408152602001613b6b604091399050600181016020830160005b86811015611e445760038101905062ffffff818a015116603f8160121c168401518060081b905060ff603f83600c1c1686015116810190508060081b905060ff603f8360061c1686015116810190508060081b905060ff603f831686015116810190508060e01b90508084526004840193505050611dcb565b506003860660018114611e5e5760028114611e6e57611e79565b613d3d60f01b6002830352611e79565b603d60f81b60018303525b508484525050819450505050505b919050565b611ea6828260405180602001604052806000815250612198565b5050565b611eb382611356565b611ef2576040517f08c379a0000000000000000000000000000000000000000000000000000000008152600401611ee9906135b1565b60405180910390fd5b80600660008481526020019081526020016000209080519060200190611f199291906123d4565b505050565b611fb8838383604051602401611f3693929190613473565b6040516020818303038152906040527fe3849f79000000000000000000000000000000000000000000000000000000007bffffffffffffffffffffffffffffffffffffffffffffffffffffffff19166020820180517bffffffffffffffffffffffffffffffffffffffffffffffffffffffff8381831617835250505050611fd3565b505050565b6001816000016000828254019250508190555050565b60008151905060006a636f6e736f6c652e6c6f679050602083016000808483855afa5050505050565b505050565b60006120228473ffffffffffffffffffffffffffffffffffffffff166121f3565b1561218b578373ffffffffffffffffffffffffffffffffffffffff1663150b7a0261204b6113c2565b8786866040518563ffffffff1660e01b815260040161206d949392919061338a565b602060405180830381600087803b15801561208757600080fd5b505af19250505080156120b857506040513d601f19601f820116820180604052508101906120b59190612718565b60015b61213b573d80600081146120e8576040519150601f19603f3d011682016040523d82523d6000602084013e6120ed565b606091505b50600081511415612133576040517f08c379a000000000000000000000000000000000000000000000000000000000815260040161212a906134b1565b60405180910390fd5b805181602001fd5b63150b7a0260e01b7bffffffffffffffffffffffffffffffffffffffffffffffffffffffff1916817bffffffffffffffffffffffffffffffffffffffffffffffffffffffff191614915050612190565b600190505b949350505050565b6121a28383612206565b6121af6000848484612001565b6121ee576040517f08c379a00000000000000000000000000000000000000000000000000000000081526004016121e5906134b1565b60405180910390fd5b505050565b600080823b905060008111915050919050565b600073ffffffffffffffffffffffffffffffffffffffff168273ffffffffffffffffffffffffffffffffffffffff161415612276576040517f08c379a000000000000000000000000000000000000000000000000000000000815260040161226d906135d1565b60405180910390fd5b61227f81611356565b156122bf576040517f08c379a00000000000000000000000000000000000000000000000000000000081526004016122b6906134d1565b60405180910390fd5b6122cb60008383611ffc565b6001600360008473ffffffffffffffffffffffffffffffffffffffff1673ffffffffffffffffffffffffffffffffffffffff168152602001908152602001600020600082825461231b91906137a5565b92505081905550816002600083815260200190815260200160002060006101000a81548173ffffffffffffffffffffffffffffffffffffffff021916908373ffffffffffffffffffffffffffffffffffffffff160217905550808273ffffffffffffffffffffffffffffffffffffffff16600073ffffffffffffffffffffffffffffffffffffffff167fddf252ad1be2c89b69c2b068fc378daa952ba7f163c4a11628f55a4df523b3ef60405160405180910390a45050565b8280546123e090613970565b90600052602060002090601f0160209004810192826124025760008555612449565b82601f1061241b57805160ff1916838001178555612449565b82800160010185558215612449579182015b8281111561244857825182559160200191906001019061242d565b5b509050612456919061245a565b5090565b5b8082111561247357600081600090555060010161245b565b5090565b600061248a6124858461371d565b6136ec565b9050828152602081018484840111156124a257600080fd5b6124ad84828561392e565b509392505050565b6000813590506124c481613ae9565b92915050565b6000813590506124d981613b00565b92915050565b6000813590506124ee81613b17565b92915050565b60008151905061250381613b17565b92915050565b600082601f83011261251a57600080fd5b813561252a848260208601612477565b91505092915050565b60008135905061254281613b2e565b92915050565b60006020828403121561255a57600080fd5b6000612568848285016124b5565b91505092915050565b6000806040838503121561258457600080fd5b6000612592858286016124b5565b92505060206125a3858286016124b5565b9150509250929050565b6000806000606084860312156125c257600080fd5b60006125d0868287016124b5565b93505060206125e1868287016124b5565b92505060406125f286828701612533565b9150509250925092565b6000806000806080858703121561261257600080fd5b6000612620878288016124b5565b9450506020612631878288016124b5565b935050604061264287828801612533565b925050606085013567ffffffffffffffff81111561265f57600080fd5b61266b87828801612509565b91505092959194509250565b6000806040838503121561268a57600080fd5b6000612698858286016124b5565b92505060206126a9858286016124ca565b9150509250929050565b600080604083850312156126c657600080fd5b60006126d4858286016124b5565b92505060206126e585828601612533565b9150509250929050565b60006020828403121561270157600080fd5b600061270f848285016124df565b91505092915050565b60006020828403121561272a57600080fd5b6000612738848285016124f4565b91505092915050565b60006020828403121561275357600080fd5b600061276184828501612533565b91505092915050565b612773816138ba565b82525050565b612782816138cc565b82525050565b600061279382613762565b61279d8185613778565b93506127ad81856020860161393d565b6127b681613ad8565b840191505092915050565b60006127cc8261376d565b6127d68185613789565b93506127e681856020860161393d565b6127ef81613ad8565b840191505092915050565b60006128058261376d565b61280f818561379a565b935061281f81856020860161393d565b80840191505092915050565b6000815461283881613970565b612842818661379a565b9450600182166000811461285d576001811461286e576128a1565b60ff198316865281860193506128a1565b6128778561374d565b60005b838110156128995781548189015260018201915060208101905061287a565b838801955050505b50505092915050565b60006128b760258361379a565b91507f68747470733a2f2f6e6674707265766965772e30786465762e636f6465732f3f60008301527f636f64653d0000000000000000000000000000000000000000000000000000006020830152602582019050919050565b600061291d603283613789565b91507f4552433732313a207472616e7366657220746f206e6f6e20455243373231526560008301527f63656976657220696d706c656d656e74657200000000000000000000000000006020830152604082019050919050565b6000612983601c83613789565b91507f4552433732313a20746f6b656e20616c7265616479206d696e746564000000006000830152602082019050919050565b60006129c3600a8361379a565b91507f54484952445f574f5244000000000000000000000000000000000000000000006000830152600a82019050919050565b6000612a0360738361379a565b91507f222c20226465736372697074696f6e223a20224120636c61737369666965642060008301527f636f6c6c656374696f6e206f66206e65666172696f757320676f7665726e6d6560208301527f6e742061637469766974792e222c2022696d616765223a2022646174613a696d60408301527f6167652f7376672b786d6c3b6261736536342c000000000000000000000000006060830152607382019050919050565b6000612ab5602483613789565b91507f4552433732313a207472616e7366657220746f20746865207a65726f2061646460008301527f72657373000000000000000000000000000000000000000000000000000000006020830152604082019050919050565b6000612b1b601983613789565b91507f4552433732313a20617070726f766520746f2063616c6c6572000000000000006000830152602082019050919050565b6000612b5b600b8361379a565b91507f5345434f4e445f574f52440000000000000000000000000000000000000000006000830152600b82019050919050565b6000612b9b602c83613789565b91507f4552433732313a206f70657261746f7220717565727920666f72206e6f6e657860008301527f697374656e7420746f6b656e00000000000000000000000000000000000000006020830152604082019050919050565b6000612c01600d8361379a565b91507f3c2f746578743e3c2f7376673e000000000000000000000000000000000000006000830152600d82019050919050565b6000612c41603883613789565b91507f4552433732313a20617070726f76652063616c6c6572206973206e6f74206f7760008301527f6e6572206e6f7220617070726f76656420666f7220616c6c00000000000000006020830152604082019050919050565b6000612ca7602a83613789565b91507f4552433732313a2062616c616e636520717565727920666f7220746865207a6560008301527f726f2061646472657373000000000000000000000000000000000000000000006020830152604082019050919050565b6000612d0d602983613789565b91507f4552433732313a206f776e657220717565727920666f72206e6f6e657869737460008301527f656e7420746f6b656e00000000000000000000000000000000000000000000006020830152604082019050919050565b6000612d73602e83613789565b91507f45524337323155524953746f726167653a2055524920736574206f66206e6f6e60008301527f6578697374656e7420746f6b656e0000000000000000000000000000000000006020830152604082019050919050565b6000612dd960028361379a565b91507f227d0000000000000000000000000000000000000000000000000000000000006000830152600282019050919050565b6000612e19602083613789565b91507f4552433732313a206d696e7420746f20746865207a65726f20616464726573736000830152602082019050919050565b6000612e59603183613789565b91507f45524337323155524953746f726167653a2055524920717565727920666f722060008301527f6e6f6e6578697374656e7420746f6b656e0000000000000000000000000000006020830152604082019050919050565b6000612ebf602183613789565b91507f416c6c204e465473206861766520616c7265616479206265656e206d696e746560008301527f64000000000000000000000000000000000000000000000000000000000000006020830152604082019050919050565b6000612f25602c83613789565b91507f4552433732313a20617070726f76656420717565727920666f72206e6f6e657860008301527f697374656e7420746f6b656e00000000000000000000000000000000000000006020830152604082019050919050565b6000612f8b602983613789565b91507f4552433732313a207472616e73666572206f6620746f6b656e2074686174206960008301527f73206e6f74206f776e00000000000000000000000000000000000000000000006020830152604082019050919050565b6000612ff1602f83613789565b91507f4552433732314d657461646174613a2055524920717565727920666f72206e6f60008301527f6e6578697374656e7420746f6b656e00000000000000000000000000000000006020830152604082019050919050565b6000613057600a8361379a565b91507f7b226e616d65223a2022000000000000000000000000000000000000000000006000830152600a82019050919050565b6000613097602183613789565b91507f4552433732313a20617070726f76616c20746f2063757272656e74206f776e6560008301527f72000000000000000000000000000000000000000000000000000000000000006020830152604082019050919050565b60006130fd600a8361379a565b91507f46495253545f574f5244000000000000000000000000000000000000000000006000830152600a82019050919050565b600061313d601d8361379a565b91507f646174613a6170706c69636174696f6e2f6a736f6e3b6261736536342c0000006000830152601d82019050919050565b600061317d603183613789565b91507f4552433732313a207472616e736665722063616c6c6572206973206e6f74206f60008301527f776e6572206e6f7220617070726f7665640000000000000000000000000000006020830152604082019050919050565b6131df81613924565b82525050565b60006131f182846127fa565b915081905092915050565b600061320882856127fa565b915061321482846127fa565b91508190509392505050565b600061322c82866127fa565b915061323882856127fa565b915061324482846127fa565b9150819050949350505050565b600061325d828561282b565b915061326982846127fa565b915061327482612bf4565b91508190509392505050565b600061328b826128aa565b915061329782846127fa565b915081905092915050565b60006132ad826129b6565b91506132b982846127fa565b915081905092915050565b60006132cf82612b4e565b91506132db82846127fa565b915081905092915050565b60006132f18261304a565b91506132fd82856127fa565b9150613308826129f6565b915061331482846127fa565b915061331f82612dcc565b91508190509392505050565b6000613336826130f0565b915061334282846127fa565b915081905092915050565b600061335882613130565b915061336482846127fa565b915081905092915050565b6000602082019050613384600083018461276a565b92915050565b600060808201905061339f600083018761276a565b6133ac602083018661276a565b6133b960408301856131d6565b81810360608301526133cb8184612788565b905095945050505050565b60006040820190506133eb600083018561276a565b6133f860208301846131d6565b9392505050565b60006020820190506134146000830184612779565b92915050565b6000602082019050818103600083015261343481846127c1565b905092915050565b6000604082019050818103600083015261345681856127c1565b9050818103602083015261346a81846127c1565b90509392505050565b6000606082019050818103600083015261348d81866127c1565b905061349c60208301856131d6565b6134a9604083018461276a565b949350505050565b600060208201905081810360008301526134ca81612910565b9050919050565b600060208201905081810360008301526134ea81612976565b9050919050565b6000602082019050818103600083015261350a81612aa8565b9050919050565b6000602082019050818103600083015261352a81612b0e565b9050919050565b6000602082019050818103600083015261354a81612b8e565b9050919050565b6000602082019050818103600083015261356a81612c34565b9050919050565b6000602082019050818103600083015261358a81612c9a565b9050919050565b600060208201905081810360008301526135aa81612d00565b9050919050565b600060208201905081810360008301526135ca81612d66565b9050919050565b600060208201905081810360008301526135ea81612e0c565b9050919050565b6000602082019050818103600083015261360a81612e4c565b9050919050565b6000602082019050818103600083015261362a81612eb2565b9050919050565b6000602082019050818103600083015261364a81612f18565b9050919050565b6000602082019050818103600083015261366a81612f7e565b9050919050565b6000602082019050818103600083015261368a81612fe4565b9050919050565b600060208201905081810360008301526136aa8161308a565b9050919050565b600060208201905081810360008301526136ca81613170565b9050919050565b60006020820190506136e660008301846131d6565b92915050565b6000604051905081810181811067ffffffffffffffff8211171561371357613712613aa9565b5b8060405250919050565b600067ffffffffffffffff82111561373857613737613aa9565b5b601f19601f8301169050602081019050919050565b60008190508160005260206000209050919050565b600081519050919050565b600081519050919050565b600082825260208201905092915050565b600082825260208201905092915050565b600081905092915050565b60006137b082613924565b91506137bb83613924565b9250827fffffffffffffffffffffffffffffffffffffffffffffffffffffffffffffffff038211156137f0576137ef613a1c565b5b828201905092915050565b600061380682613924565b915061381183613924565b92508261382157613820613a4b565b5b828204905092915050565b600061383782613924565b915061384283613924565b9250817fffffffffffffffffffffffffffffffffffffffffffffffffffffffffffffffff048311821515161561387b5761387a613a1c565b5b828202905092915050565b600061389182613924565b915061389c83613924565b9250828210156138af576138ae613a1c565b5b828203905092915050565b60006138c582613904565b9050919050565b60008115159050919050565b60007fffffffff0000000000000000000000000000000000000000000000000000000082169050919050565b600073ffffffffffffffffffffffffffffffffffffffff82169050919050565b6000819050919050565b82818337600083830152505050565b60005b8381101561395b578082015181840152602081019050613940565b8381111561396a576000848401525b50505050565b6000600282049050600182168061398857607f821691505b6020821081141561399c5761399b613a7a565b5b50919050565b60006139ad82613924565b91507fffffffffffffffffffffffffffffffffffffffffffffffffffffffffffffffff8214156139e0576139df613a1c565b5b600182019050919050565b60006139f682613924565b9150613a0183613924565b925082613a1157613a10613a4b565b5b828206905092915050565b7f4e487b7100000000000000000000000000000000000000000000000000000000600052601160045260246000fd5b7f4e487b7100000000000000000000000000000000000000000000000000000000600052601260045260246000fd5b7f4e487b7100000000000000000000000000000000000000000000000000000000600052602260045260246000fd5b7f4e487b7100000000000000000000000000000000000000000000000000000000600052604160045260246000fd5b6000601f19601f8301169050919050565b613af2816138ba565b8114613afd57600080fd5b50565b613b09816138cc565b8114613b1457600080fd5b50565b613b20816138d8565b8114613b2b57600080fd5b50565b613b3781613924565b8114613b4257600080fd5b5056fe416e204e465420772f20494420257320686173206265656e206d696e74656420746f2025734142434445464748494a4b4c4d4e4f505152535455565758595a6162636465666768696a6b6c6d6e6f707172737475767778797a303132333435363738392b2fa2646970667358221220febe80d51c2d760cc5b0719973fcd5fd9168abb094023783bb5e873bafcd4b4664736f6c634300080000333c73766720786d6c6e733d27687474703a2f2f7777772e77332e6f72672f323030302f73766727207072657365727665417370656374526174696f3d27784d696e594d696e206d656574272076696577426f783d273020302033353020333530273e3c7374796c653e2e62617365207b2066696c6c3a2077686974653b20666f6e742d66616d696c793a2073657269663b20666f6e742d73697a653a20323470783b207d3c2f7374796c653e3c726563742077696474683d273130302527206865696768743d2731303025272066696c6c3d27626c61636b27202f3e3c7465787420783d273530252720793d273530252720636c6173733d27626173652720646f6d696e616e742d626173656c696e653d276d6964646c652720746578742d616e63686f723d276d6964646c65273e",
  "linkReferences": {},
  "deployedLinkReferences": {}
}